{"abi":[{"type":"constructor","inputs":[{"name":"initialSupply","type":"uint256","internalType":"uint256"},{"name":"tokenName","type":"string","internalType":"string"},{"name":"tokenSymbol","type":"string","internalType":"string"}],"stateMutability":"nonpayable"},{"type":"function","name":"allowance","inputs":[{"name":"","type":"address","internalType":"address"},{"name":"","type":"address","internalType":"address"}],"outputs":[{"name":"","type":"uint256","internalType":"uint256"}],"stateMutability":"view"},{"type":"function","name":"approve","inputs":[{"name":"_spender","type":"address","internalType":"address"},{"name":"_value","type":"uint256","internalType":"uint256"}],"outputs":[{"name":"success","type":"bool","internalType":"bool"}],"stateMutability":"nonpayable"},{"type":"function","name":"approveAndCall","inputs":[{"name":"_spender","type":"address","internalType":"address"},{"name":"_value","type":"uint256","internalType":"uint256"},{"name":"_extraData","type":"bytes","internalType":"bytes"}],"outputs":[{"name":"success","type":"bool","internalType":"bool"}],"stateMutability":"nonpayable"},{"type":"function","name":"balanceOf","inputs":[{"name":"","type":"address","internalType":"address"}],"outputs":[{"name":"","type":"uint256","internalType":"uint256"}],"stateMutability":"view"},{"type":"function","name":"burn","inputs":[{"name":"_value","type":"uint256","internalType":"uint256"}],"outputs":[{"name":"success","type":"bool","internalType":"bool"}],"stateMutability":"nonpayable"},{"type":"function","name":"burnFrom","inputs":[{"name":"_from","type":"address","internalType":"address"},{"name":"_value","type":"uint256","internalType":"uint256"}],"outputs":[{"name":"success","type":"bool","internalType":"bool"}],"stateMutability":"nonpayable"},{"type":"function","name":"decimals","inputs":[],"outputs":[{"name":"","type":"uint8","internalType":"uint8"}],"stateMutability":"view"},{"type":"function","name":"getTokenInfo","inputs":[],"outputs":[{"name":"","type":"string","internalType":"string"},{"name":"","type":"string","internalType":"string"},{"name":"","type":"uint256","internalType":"uint256"},{"name":"","type":"uint256","internalType":"uint256"}],"stateMutability":"view"},{"type":"function","name":"name","inputs":[],"outputs":[{"name":"","type":"string","internalType":"string"}],"stateMutability":"view"},{"type":"function","name":"symbol","inputs":[],"outputs":[{"name":"","type":"string","internalType":"string"}],"stateMutability":"view"},{"type":"function","name":"totalSupply","inputs":[],"outputs":[{"name":"","type":"uint256","internalType":"uint256"}],"stateMutability":"view"},{"type":"function","name":"transfer","inputs":[{"name":"_to","type":"address","internalType":"address"},{"name":"_value","type":"uint256","internalType":"uint256"}],"outputs":[{"name":"success","type":"bool","internalType":"bool"}],"stateMutability":"nonpayable"},{"type":"function","name":"transferFrom","inputs":[{"name":"_from","type":"address","internalType":"address"},{"name":"_to","type":"address","internalType":"address"},{"name":"_value","type":"uint256","internalType":"uint256"}],"outputs":[{"name":"success","type":"bool","internalType":"bool"}],"stateMutability":"nonpayable"},{"type":"event","name":"Approval","inputs":[{"name":"_owner","type":"address","indexed":true,"internalType":"address"},{"name":"_spender","type":"address","indexed":true,"internalType":"address"},{"name":"_value","type":"uint256","indexed":false,"internalType":"uint256"}],"anonymous":false},{"type":"event","name":"Burn","inputs":[{"name":"from","type":"address","indexed":true,"internalType":"address"},{"name":"value","type":"uint256","indexed":false,"internalType":"uint256"}],"anonymous":false},{"type":"event","name":"Transfer","inputs":[{"name":"from","type":"address","indexed":true,"internalType":"address"},{"name":"to","type":"address","indexed":true,"internalType":"address"},{"name":"value","type":"uint256","indexed":false,"internalType":"uint256"}],"anonymous":false}],"bytecode":{"object":"0x60806040526002805460ff191660011790553480156200001e57600080fd5b50604051620010a6380380620010a6833981016040819052620000419162000162565b600254620000549060ff16600a620002eb565b62000060908462000300565b600381905533600090815260046020526040812091909155620000848382620003a9565b506001620000938282620003a9565b5050505062000475565b634e487b7160e01b600052604160045260246000fd5b600082601f830112620000c557600080fd5b81516001600160401b0380821115620000e257620000e26200009d565b604051601f8301601f19908116603f011681019082821181831017156200010d576200010d6200009d565b816040528381526020925086838588010111156200012a57600080fd5b600091505b838210156200014e57858201830151818301840152908201906200012f565b600093810190920192909252949350505050565b6000806000606084860312156200017857600080fd5b835160208501519093506001600160401b03808211156200019857600080fd5b620001a687838801620000b3565b93506040860151915080821115620001bd57600080fd5b50620001cc86828701620000b3565b9150509250925092565b634e487b7160e01b600052601160045260246000fd5b600181815b808511156200022d578160001904821115620002115762000211620001d6565b808516156200021f57918102915b93841c9390800290620001f1565b509250929050565b6000826200024657506001620002e5565b816200025557506000620002e5565b81600181146200026e5760028114620002795762000299565b6001915050620002e5565b60ff8411156200028d576200028d620001d6565b50506001821b620002e5565b5060208310610133831016604e8410600b8410161715620002be575081810a620002e5565b620002ca8383620001ec565b8060001904821115620002e157620002e1620001d6565b0290505b92915050565b6000620002f9838362000235565b9392505050565b8082028115828204841417620002e557620002e5620001d6565b600181811c908216806200032f57607f821691505b6020821081036200035057634e487b7160e01b600052602260045260246000fd5b50919050565b601f821115620003a457600081815260208120601f850160051c810160208610156200037f5750805b601f850160051c820191505b81811015620003a0578281556001016200038b565b5050505b505050565b81516001600160401b03811115620003c557620003c56200009d565b620003dd81620003d684546200031a565b8462000356565b602080601f831160018114620004155760008415620003fc5750858301515b600019600386901b1c1916600185901b178555620003a0565b600085815260208120601f198616915b82811015620004465788860151825594840194600190910190840162000425565b5085821015620004655787850151600019600388901b60f8161c191681555b5050505050600190811b01905550565b610c2180620004856000396000f3fe608060405234801561001057600080fd5b50600436106100cf5760003560e01c806370a082311161008c578063a9059cbb11610066578063a9059cbb146101ac578063abb1dc44146101bf578063cae9ca51146101d7578063dd62ed3e146101ea57600080fd5b806370a082311461017157806379cc67901461019157806395d89b41146101a457600080fd5b806306fdde03146100d4578063095ea7b3146100f257806318160ddd1461011557806323b872dd1461012c578063313ce5671461013f57806342966c681461015e575b600080fd5b6100dc610215565b6040516100e9919061090c565b60405180910390f35b61010561010036600461093b565b6102a3565b60405190151581526020016100e9565b61011e60035481565b6040519081526020016100e9565b61010561013a366004610965565b610310565b60025461014c9060ff1681565b60405160ff90911681526020016100e9565b61010561016c3660046109a1565b61038f565b61011e61017f3660046109ba565b60046020526000908152604090205481565b61010561019f36600461093b565b610425565b6100dc61053f565b6101056101ba36600461093b565b61054c565b6101c7610562565b6040516100e994939291906109d5565b6101056101e5366004610a24565b6106bb565b61011e6101f8366004610aef565b600560209081526000928352604080842090915290825290205481565b6000805461022290610b22565b80601f016020809104026020016040519081016040528092919081815260200182805461024e90610b22565b801561029b5780601f106102705761010080835404028352916020019161029b565b820191906000526020600020905b81548152906001019060200180831161027e57829003601f168201915b505050505081565b3360008181526005602090815260408083206001600160a01b038716808552925280832085905551919290917f8c5be1e5ebec7d5bd14f71427d1e84f3dd0314c0f7b2291e5b200ac8c7c3b925906102fe9086815260200190565b60405180910390a35060015b92915050565b6001600160a01b038316600090815260056020908152604080832033845290915281205482111561034057600080fd5b6001600160a01b038416600090815260056020908152604080832033845290915281208054849290610373908490610b72565b909155506103849050848484610743565b5060015b9392505050565b336000908152600460205260408120548211156103ab57600080fd5b33600090815260046020526040812080548492906103ca908490610b72565b9250508190555081600360008282546103e39190610b72565b909155505060405182815233907fcc16f5dbb4873280815c1ee09dbd06736cffcc184412cf7a71a0fdb75d397ca59060200160405180910390a2506001919050565b6001600160a01b03821660009081526004602052604081205482111561044a57600080fd5b6001600160a01b038316600090815260056020908152604080832033845290915290205482111561047a57600080fd5b6001600160a01b038316600090815260046020526040812080548492906104a2908490610b72565b90915550506001600160a01b0383166000908152600560209081526040808320338452909152812080548492906104da908490610b72565b9250508190555081600360008282546104f39190610b72565b90915550506040518281526001600160a01b038416907fcc16f5dbb4873280815c1ee09dbd06736cffcc184412cf7a71a0fdb75d397ca59060200160405180910390a250600192915050565b6001805461022290610b22565b6000610559338484610743565b50600192915050565b6060806000806000600160035460046000336001600160a01b03166001600160a01b03168152602001908152602001600020548380546105a190610b22565b80601f01602080910402602001604051908101604052809291908181526020018280546105cd90610b22565b801561061a5780601f106105ef5761010080835404028352916020019161061a565b820191906000526020600020905b8154815290600101906020018083116105fd57829003601f168201915b5050505050935082805461062d90610b22565b80601f016020809104026020016040519081016040528092919081815260200182805461065990610b22565b80156106a65780601f1061067b576101008083540402835291602001916106a6565b820191906000526020600020905b81548152906001019060200180831161068957829003601f168201915b50505050509250935093509350935090919293565b6000836106c881856102a3565b1561073b57604051638f4ffcb160e01b81526001600160a01b03821690638f4ffcb1906106ff903390889030908990600401610b85565b600060405180830381600087803b15801561071957600080fd5b505af115801561072d573d6000803e3d6000fd5b505050506001915050610388565b509392505050565b6001600160a01b03821661075657600080fd5b6001600160a01b03831660009081526004602052604090205481111561077b57600080fd5b6001600160a01b03821660009081526004602052604090205461079e8282610bc2565b10156107a957600080fd5b6001600160a01b0380831660009081526004602052604080822054928616825281205490916107d791610bc2565b6001600160a01b038516600090815260046020526040812080549293508492909190610804908490610b72565b90915550506001600160a01b03831660009081526004602052604081208054849290610831908490610bc2565b92505081905550826001600160a01b0316846001600160a01b03167fddf252ad1be2c89b69c2b068fc378daa952ba7f163c4a11628f55a4df523b3ef8460405161087d91815260200190565b60405180910390a36001600160a01b0380841660009081526004602052604080822054928716825290205482916108b391610bc2565b146108c0576108c0610bd5565b50505050565b6000815180845260005b818110156108ec576020818501810151868301820152016108d0565b506000602082860101526020601f19601f83011685010191505092915050565b60208152600061038860208301846108c6565b80356001600160a01b038116811461093657600080fd5b919050565b6000806040838503121561094e57600080fd5b6109578361091f565b946020939093013593505050565b60008060006060848603121561097a57600080fd5b6109838461091f565b92506109916020850161091f565b9150604084013590509250925092565b6000602082840312156109b357600080fd5b5035919050565b6000602082840312156109cc57600080fd5b6103888261091f565b6080815260006109e860808301876108c6565b82810360208401526109fa81876108c6565b604084019590955250506060015292915050565b634e487b7160e01b600052604160045260246000fd5b600080600060608486031215610a3957600080fd5b610a428461091f565b925060208401359150604084013567ffffffffffffffff80821115610a6657600080fd5b818601915086601f830112610a7a57600080fd5b813581811115610a8c57610a8c610a0e565b604051601f8201601f19908116603f01168101908382118183101715610ab457610ab4610a0e565b81604052828152896020848701011115610acd57600080fd5b8260208601602083013760006020848301015280955050505050509250925092565b60008060408385031215610b0257600080fd5b610b0b8361091f565b9150610b196020840161091f565b90509250929050565b600181811c90821680610b3657607f821691505b602082108103610b5657634e487b7160e01b600052602260045260246000fd5b50919050565b634e487b7160e01b600052601160045260246000fd5b8181038181111561030a5761030a610b5c565b6001600160a01b0385811682526020820185905283166040820152608060608201819052600090610bb8908301846108c6565b9695505050505050565b8082018082111561030a5761030a610b5c565b634e487b7160e01b600052600160045260246000fdfea2646970667358221220c773ad4834b06f2acb7d826837f30202ee3a82bd5184df4cb9a0f2b13035a59c64736f6c63430008120033","linkReferences":{}},"methodIdentifiers":{"allowance(address,address)":"dd62ed3e","approve(address,uint256)":"095ea7b3","approveAndCall(address,uint256,bytes)":"cae9ca51","balanceOf(address)":"70a08231","burn(uint256)":"42966c68","burnFrom(address,uint256)":"79cc6790","decimals()":"313ce567","getTokenInfo()":"abb1dc44","name()":"06fdde03","symbol()":"95d89b41","totalSupply()":"18160ddd","transfer(address,uint256)":"a9059cbb","transferFrom(address,address,uint256)":"23b872dd"},"id":20}