{"abi":[{"type":"constructor","inputs":[{"name":"initialSupply","type":"uint256","internalType":"uint256"},{"name":"tokenName","type":"string","internalType":"string"},{"name":"tokenSymbol","type":"string","internalType":"string"}],"stateMutability":"nonpayable"},{"type":"function","name":"allowance","inputs":[{"name":"","type":"address","internalType":"address"},{"name":"","type":"address","internalType":"address"}],"outputs":[{"name":"","type":"uint256","internalType":"uint256"}],"stateMutability":"view"},{"type":"function","name":"approve","inputs":[{"name":"_spender","type":"address","internalType":"address"},{"name":"_value","type":"uint256","internalType":"uint256"}],"outputs":[{"name":"success","type":"bool","internalType":"bool"}],"stateMutability":"nonpayable"},{"type":"function","name":"approveAndCall","inputs":[{"name":"_spender","type":"address","internalType":"address"},{"name":"_value","type":"uint256","internalType":"uint256"},{"name":"_extraData","type":"bytes","internalType":"bytes"}],"outputs":[{"name":"success","type":"bool","internalType":"bool"}],"stateMutability":"nonpayable"},{"type":"function","name":"balanceOf","inputs":[{"name":"","type":"address","internalType":"address"}],"outputs":[{"name":"","type":"uint256","internalType":"uint256"}],"stateMutability":"view"},{"type":"function","name":"burn","inputs":[{"name":"_value","type":"uint256","internalType":"uint256"}],"outputs":[{"name":"success","type":"bool","internalType":"bool"}],"stateMutability":"nonpayable"},{"type":"function","name":"burnFrom","inputs":[{"name":"_from","type":"address","internalType":"address"},{"name":"_value","type":"uint256","internalType":"uint256"}],"outputs":[{"name":"success","type":"bool","internalType":"bool"}],"stateMutability":"nonpayable"},{"type":"function","name":"decimals","inputs":[],"outputs":[{"name":"","type":"uint8","internalType":"uint8"}],"stateMutability":"view"},{"type":"function","name":"name","inputs":[],"outputs":[{"name":"","type":"string","internalType":"string"}],"stateMutability":"view"},{"type":"function","name":"symbol","inputs":[],"outputs":[{"name":"","type":"string","internalType":"string"}],"stateMutability":"view"},{"type":"function","name":"totalSupply","inputs":[],"outputs":[{"name":"","type":"uint256","internalType":"uint256"}],"stateMutability":"view"},{"type":"function","name":"transfer","inputs":[{"name":"_to","type":"address","internalType":"address"},{"name":"_value","type":"uint256","internalType":"uint256"}],"outputs":[{"name":"success","type":"bool","internalType":"bool"}],"stateMutability":"nonpayable"},{"type":"function","name":"transferFrom","inputs":[{"name":"_from","type":"address","internalType":"address"},{"name":"_to","type":"address","internalType":"address"},{"name":"_value","type":"uint256","internalType":"uint256"}],"outputs":[{"name":"success","type":"bool","internalType":"bool"}],"stateMutability":"nonpayable"},{"type":"event","name":"Approval","inputs":[{"name":"_owner","type":"address","indexed":true,"internalType":"address"},{"name":"_spender","type":"address","indexed":true,"internalType":"address"},{"name":"_value","type":"uint256","indexed":false,"internalType":"uint256"}],"anonymous":false},{"type":"event","name":"Burn","inputs":[{"name":"from","type":"address","indexed":true,"internalType":"address"},{"name":"value","type":"uint256","indexed":false,"internalType":"uint256"}],"anonymous":false},{"type":"event","name":"Transfer","inputs":[{"name":"from","type":"address","indexed":true,"internalType":"address"},{"name":"to","type":"address","indexed":true,"internalType":"address"},{"name":"value","type":"uint256","indexed":false,"internalType":"uint256"}],"anonymous":false}],"bytecode":{"object":"0x60806040526002805460ff191660121790553480156200001e57600080fd5b5060405162000ee138038062000ee1833981016040819052620000419162000162565b600254620000549060ff16600a620002eb565b62000060908462000300565b600381905533600090815260046020526040812091909155620000848382620003a9565b506001620000938282620003a9565b5050505062000475565b634e487b7160e01b600052604160045260246000fd5b600082601f830112620000c557600080fd5b81516001600160401b0380821115620000e257620000e26200009d565b604051601f8301601f19908116603f011681019082821181831017156200010d576200010d6200009d565b816040528381526020925086838588010111156200012a57600080fd5b600091505b838210156200014e57858201830151818301840152908201906200012f565b600093810190920192909252949350505050565b6000806000606084860312156200017857600080fd5b835160208501519093506001600160401b03808211156200019857600080fd5b620001a687838801620000b3565b93506040860151915080821115620001bd57600080fd5b50620001cc86828701620000b3565b9150509250925092565b634e487b7160e01b600052601160045260246000fd5b600181815b808511156200022d578160001904821115620002115762000211620001d6565b808516156200021f57918102915b93841c9390800290620001f1565b509250929050565b6000826200024657506001620002e5565b816200025557506000620002e5565b81600181146200026e5760028114620002795762000299565b6001915050620002e5565b60ff8411156200028d576200028d620001d6565b50506001821b620002e5565b5060208310610133831016604e8410600b8410161715620002be575081810a620002e5565b620002ca8383620001ec565b8060001904821115620002e157620002e1620001d6565b0290505b92915050565b6000620002f9838362000235565b9392505050565b8082028115828204841417620002e557620002e5620001d6565b600181811c908216806200032f57607f821691505b6020821081036200035057634e487b7160e01b600052602260045260246000fd5b50919050565b601f821115620003a457600081815260208120601f850160051c810160208610156200037f5750805b601f850160051c820191505b81811015620003a0578281556001016200038b565b5050505b505050565b81516001600160401b03811115620003c557620003c56200009d565b620003dd81620003d684546200031a565b8462000356565b602080601f831160018114620004155760008415620003fc5750858301515b600019600386901b1c1916600185901b178555620003a0565b600085815260208120601f198616915b82811015620004465788860151825594840194600190910190840162000425565b5085821015620004655787850151600019600388901b60f8161c191681555b5050505050600190811b01905550565b610a5c80620004856000396000f3fe608060405234801561001057600080fd5b50600436106100b45760003560e01c806370a082311161007157806370a082311461015657806379cc67901461017657806395d89b4114610189578063a9059cbb14610191578063cae9ca51146101a4578063dd62ed3e146101b757600080fd5b806306fdde03146100b9578063095ea7b3146100d757806318160ddd146100fa57806323b872dd14610111578063313ce5671461012457806342966c6814610143575b600080fd5b6100c16101e2565b6040516100ce9190610780565b60405180910390f35b6100ea6100e53660046107af565b610270565b60405190151581526020016100ce565b61010360035481565b6040519081526020016100ce565b6100ea61011f3660046107d9565b6102dd565b6002546101319060ff1681565b60405160ff90911681526020016100ce565b6100ea610151366004610815565b61035c565b61010361016436600461082e565b60046020526000908152604090205481565b6100ea6101843660046107af565b6103f2565b6100c161050c565b6100ea61019f3660046107af565b610519565b6100ea6101b236600461085f565b61052f565b6101036101c536600461092a565b600560209081526000928352604080842090915290825290205481565b600080546101ef9061095d565b80601f016020809104026020016040519081016040528092919081815260200182805461021b9061095d565b80156102685780601f1061023d57610100808354040283529160200191610268565b820191906000526020600020905b81548152906001019060200180831161024b57829003601f168201915b505050505081565b3360008181526005602090815260408083206001600160a01b038716808552925280832085905551919290917f8c5be1e5ebec7d5bd14f71427d1e84f3dd0314c0f7b2291e5b200ac8c7c3b925906102cb9086815260200190565b60405180910390a35060015b92915050565b6001600160a01b038316600090815260056020908152604080832033845290915281205482111561030d57600080fd5b6001600160a01b0384166000908152600560209081526040808320338452909152812080548492906103409084906109ad565b9091555061035190508484846105b7565b5060015b9392505050565b3360009081526004602052604081205482111561037857600080fd5b33600090815260046020526040812080548492906103979084906109ad565b9250508190555081600360008282546103b091906109ad565b909155505060405182815233907fcc16f5dbb4873280815c1ee09dbd06736cffcc184412cf7a71a0fdb75d397ca59060200160405180910390a2506001919050565b6001600160a01b03821660009081526004602052604081205482111561041757600080fd5b6001600160a01b038316600090815260056020908152604080832033845290915290205482111561044757600080fd5b6001600160a01b0383166000908152600460205260408120805484929061046f9084906109ad565b90915550506001600160a01b0383166000908152600560209081526040808320338452909152812080548492906104a79084906109ad565b9250508190555081600360008282546104c091906109ad565b90915550506040518281526001600160a01b038416907fcc16f5dbb4873280815c1ee09dbd06736cffcc184412cf7a71a0fdb75d397ca59060200160405180910390a250600192915050565b600180546101ef9061095d565b60006105263384846105b7565b50600192915050565b60008361053c8185610270565b156105af57604051638f4ffcb160e01b81526001600160a01b03821690638f4ffcb1906105739033908890309089906004016109c0565b600060405180830381600087803b15801561058d57600080fd5b505af11580156105a1573d6000803e3d6000fd5b505050506001915050610355565b509392505050565b6001600160a01b0382166105ca57600080fd5b6001600160a01b0383166000908152600460205260409020548111156105ef57600080fd5b6001600160a01b03821660009081526004602052604090205461061282826109fd565b101561061d57600080fd5b6001600160a01b03808316600090815260046020526040808220549286168252812054909161064b916109fd565b6001600160a01b0385166000908152600460205260408120805492935084929091906106789084906109ad565b90915550506001600160a01b038316600090815260046020526040812080548492906106a59084906109fd565b92505081905550826001600160a01b0316846001600160a01b03167fddf252ad1be2c89b69c2b068fc378daa952ba7f163c4a11628f55a4df523b3ef846040516106f191815260200190565b60405180910390a36001600160a01b038084166000908152600460205260408082205492871682529020548291610727916109fd565b1461073457610734610a10565b50505050565b6000815180845260005b8181101561076057602081850181015186830182015201610744565b506000602082860101526020601f19601f83011685010191505092915050565b602081526000610355602083018461073a565b80356001600160a01b03811681146107aa57600080fd5b919050565b600080604083850312156107c257600080fd5b6107cb83610793565b946020939093013593505050565b6000806000606084860312156107ee57600080fd5b6107f784610793565b925061080560208501610793565b9150604084013590509250925092565b60006020828403121561082757600080fd5b5035919050565b60006020828403121561084057600080fd5b61035582610793565b634e487b7160e01b600052604160045260246000fd5b60008060006060848603121561087457600080fd5b61087d84610793565b925060208401359150604084013567ffffffffffffffff808211156108a157600080fd5b818601915086601f8301126108b557600080fd5b8135818111156108c7576108c7610849565b604051601f8201601f19908116603f011681019083821181831017156108ef576108ef610849565b8160405282815289602084870101111561090857600080fd5b8260208601602083013760006020848301015280955050505050509250925092565b6000806040838503121561093d57600080fd5b61094683610793565b915061095460208401610793565b90509250929050565b600181811c9082168061097157607f821691505b60208210810361099157634e487b7160e01b600052602260045260246000fd5b50919050565b634e487b7160e01b600052601160045260246000fd5b818103818111156102d7576102d7610997565b6001600160a01b03858116825260208201859052831660408201526080606082018190526000906109f39083018461073a565b9695505050505050565b808201808211156102d7576102d7610997565b634e487b7160e01b600052600160045260246000fdfea2646970667358221220abec09865cdcc7cd81f4c3dbf9bddf7ed09d0eaef5c085a3aa112aa70ebf103964736f6c63430008140033","linkReferences":{}},"methodIdentifiers":{"allowance(address,address)":"dd62ed3e","approve(address,uint256)":"095ea7b3","approveAndCall(address,uint256,bytes)":"cae9ca51","balanceOf(address)":"70a08231","burn(uint256)":"42966c68","burnFrom(address,uint256)":"79cc6790","decimals()":"313ce567","name()":"06fdde03","symbol()":"95d89b41","totalSupply()":"18160ddd","transfer(address,uint256)":"a9059cbb","transferFrom(address,address,uint256)":"23b872dd"},"id":0}