{"abi":[{"type":"function","name":"createToken","inputs":[{"name":"name","type":"string","internalType":"string"},{"name":"symbol","type":"string","internalType":"string"},{"name":"initialSupply","type":"uint256","internalType":"uint256"}],"outputs":[{"name":"","type":"address","internalType":"address"}],"stateMutability":"nonpayable"},{"type":"function","name":"getAllTokens","inputs":[],"outputs":[{"name":"","type":"tuple[]","internalType":"struct TokenFactory.TokenInfo[]","components":[{"name":"name","type":"string","internalType":"string"},{"name":"symbol","type":"string","internalType":"string"},{"name":"tokenAddress","type":"address","internalType":"address"}]}],"stateMutability":"view"},{"type":"function","name":"tokens","inputs":[{"name":"","type":"uint256","internalType":"uint256"}],"outputs":[{"name":"name","type":"string","internalType":"string"},{"name":"symbol","type":"string","internalType":"string"},{"name":"tokenAddress","type":"address","internalType":"address"}],"stateMutability":"view"},{"type":"event","name":"TokenCreated","inputs":[{"name":"tokenAddress","type":"address","indexed":false,"internalType":"address"}],"anonymous":false}],"bytecode":{"object":"0x608060405234801561001057600080fd5b506119c5806100206000396000f3fe608060405234801561001057600080fd5b50600436106100415760003560e01c80632a5c792a146100465780634f64b2be146100645780635b06053014610086575b600080fd5b61004e6100b1565b60405161005b9190610561565b60405180910390f35b6100776100723660046105fb565b61024a565b60405161005b93929190610614565b6100996100943660046106f5565b61039d565b6040516001600160a01b03909116815260200161005b565b60606000805480602002602001604051908101604052809291908181526020016000905b82821015610241578382906000526020600020906003020160405180606001604052908160008201805461010890610762565b80601f016020809104026020016040519081016040528092919081815260200182805461013490610762565b80156101815780601f1061015657610100808354040283529160200191610181565b820191906000526020600020905b81548152906001019060200180831161016457829003601f168201915b5050505050815260200160018201805461019a90610762565b80601f01602080910402602001604051908101604052809291908181526020018280546101c690610762565b80156102135780601f106101e857610100808354040283529160200191610213565b820191906000526020600020905b8154815290600101906020018083116101f657829003601f168201915b5050509183525050600291909101546001600160a01b031660209182015290825260019290920191016100d5565b50505050905090565b6000818154811061025a57600080fd5b906000526020600020906003020160009150905080600001805461027d90610762565b80601f01602080910402602001604051908101604052809291908181526020018280546102a990610762565b80156102f65780601f106102cb576101008083540402835291602001916102f6565b820191906000526020600020905b8154815290600101906020018083116102d957829003601f168201915b50505050509080600101805461030b90610762565b80601f016020809104026020016040519081016040528092919081815260200182805461033790610762565b80156103845780601f1061035957610100808354040283529160200191610384565b820191906000526020600020905b81548152906001019060200180831161036757829003601f168201915b505050600290930154919250506001600160a01b031683565b6000806040516103ac9061050e565b604051809103906000f0801580156103c8573d6000803e3d6000fd5b5060405163588ca48760e11b81529091506001600160a01b0382169063b119490e906103fc9088908890889060040161079c565b600060405180830381600087803b15801561041657600080fd5b505af115801561042a573d6000803e3d6000fd5b505060408051606081018252888152602081018890526001600160a01b038516918101919091526000805460018101825590805281519193506003027f290decd9548b62a8d60345a988386fc84ba6bc95484008f6362f93160ef3e56301915081906104969082610821565b50602082015160018201906104ab9082610821565b5060409182015160029190910180546001600160a01b0319166001600160a01b03928316179055905190821681527f2e2b3f61b70d2d131b2a807371103cc98d51adcaa5e9a8f9c32658ad8426e74e9060200160405180910390a1949350505050565b6110ae806108e283390190565b6000815180845260005b8181101561054157602081850181015186830182015201610525565b506000602082860101526020601f19601f83011685010191505092915050565b60006020808301818452808551808352604092508286019150828160051b87010184880160005b838110156105ed57603f198984030185528151606081518186526105ae8287018261051b565b915050888201518582038a8701526105c6828261051b565b928901516001600160a01b0316958901959095525094870194925090860190600101610588565b509098975050505050505050565b60006020828403121561060d57600080fd5b5035919050565b606081526000610627606083018661051b565b8281036020840152610639818661051b565b91505060018060a01b0383166040830152949350505050565b634e487b7160e01b600052604160045260246000fd5b600082601f83011261067957600080fd5b813567ffffffffffffffff8082111561069457610694610652565b604051601f8301601f19908116603f011681019082821181831017156106bc576106bc610652565b816040528381528660208588010111156106d557600080fd5b836020870160208301376000602085830101528094505050505092915050565b60008060006060848603121561070a57600080fd5b833567ffffffffffffffff8082111561072257600080fd5b61072e87838801610668565b9450602086013591508082111561074457600080fd5b5061075186828701610668565b925050604084013590509250925092565b600181811c9082168061077657607f821691505b60208210810361079657634e487b7160e01b600052602260045260246000fd5b50919050565b6060815260006107af606083018661051b565b82810360208401526107c1818661051b565b915050826040830152949350505050565b601f82111561081c57600081815260208120601f850160051c810160208610156107f95750805b601f850160051c820191505b8181101561081857828155600101610805565b5050505b505050565b815167ffffffffffffffff81111561083b5761083b610652565b61084f816108498454610762565b846107d2565b602080601f831160018114610884576000841561086c5750858301515b600019600386901b1c1916600185901b178555610818565b600085815260208120601f198616915b828110156108b357888601518255948401946001909101908401610894565b50858210156108d15787850151600019600388901b60f8161c191681555b5050505050600190811b0190555056fe60806040526002805460ff1916601217905534801561001d57600080fd5b506110818061002d6000396000f3fe608060405234801561001057600080fd5b50600436106100ea5760003560e01c806379cc67901161008c578063abb1dc4411610066578063abb1dc44146101da578063b119490e146101f2578063cae9ca5114610207578063dd62ed3e1461021a57600080fd5b806379cc6790146101ac57806395d89b41146101bf578063a9059cbb146101c757600080fd5b806323b872dd116100c857806323b872dd14610147578063313ce5671461015a57806342966c681461017957806370a082311461018c57600080fd5b806306fdde03146100ef578063095ea7b31461010d57806318160ddd14610130575b600080fd5b6100f7610245565b6040516101049190610ac9565b60405180910390f35b61012061011b366004610af8565b6102d3565b6040519015158152602001610104565b61013960035481565b604051908152602001610104565b610120610155366004610b22565b610340565b6002546101679060ff1681565b60405160ff9091168152602001610104565b610120610187366004610b5e565b6103fc565b61013961019a366004610b77565b60046020526000908152604090205481565b6101206101ba366004610af8565b6104d5565b6100f761066a565b6101206101d5366004610af8565b610677565b6101e261068d565b6040516101049493929190610b92565b610205610200366004610c77565b6107e6565b005b610120610215366004610ce4565b610836565b610139610228366004610d4f565b600560209081526000928352604080842090915290825290205481565b6000805461025290610d82565b80601f016020809104026020016040519081016040528092919081815260200182805461027e90610d82565b80156102cb5780601f106102a0576101008083540402835291602001916102cb565b820191906000526020600020905b8154815290600101906020018083116102ae57829003601f168201915b505050505081565b3360008181526005602090815260408083206001600160a01b038716808552925280832085905551919290917f8c5be1e5ebec7d5bd14f71427d1e84f3dd0314c0f7b2291e5b200ac8c7c3b9259061032e9086815260200190565b60405180910390a35060015b92915050565b6001600160a01b03831660009081526005602090815260408083203384529091528120548211156103ad5760405162461bcd60e51b8152602060048201526012602482015271105b1b1bddd85b98d948195e18d95959195960721b60448201526064015b60405180910390fd5b6001600160a01b0384166000908152600560209081526040808320338452909152812080548492906103e0908490610dd2565b909155506103f190508484846108be565b5060015b9392505050565b3360009081526004602052604081205482111561045b5760405162461bcd60e51b815260206004820152601c60248201527f496e73756666696369656e742062616c616e636520746f206275726e0000000060448201526064016103a4565b336000908152600460205260408120805484929061047a908490610dd2565b9250508190555081600360008282546104939190610dd2565b909155505060405182815233907fcc16f5dbb4873280815c1ee09dbd06736cffcc184412cf7a71a0fdb75d397ca59060200160405180910390a2506001919050565b6001600160a01b03821660009081526004602052604081205482111561053d5760405162461bcd60e51b815260206004820152601c60248201527f496e73756666696369656e742062616c616e636520746f206275726e0000000060448201526064016103a4565b6001600160a01b03831660009081526005602090815260408083203384529091529020548211156105a55760405162461bcd60e51b8152602060048201526012602482015271105b1b1bddd85b98d948195e18d95959195960721b60448201526064016103a4565b6001600160a01b038316600090815260046020526040812080548492906105cd908490610dd2565b90915550506001600160a01b038316600090815260056020908152604080832033845290915281208054849290610605908490610dd2565b92505081905550816003600082825461061e9190610dd2565b90915550506040518281526001600160a01b038416907fcc16f5dbb4873280815c1ee09dbd06736cffcc184412cf7a71a0fdb75d397ca59060200160405180910390a250600192915050565b6001805461025290610d82565b60006106843384846108be565b50600192915050565b6060806000806000600160035460046000336001600160a01b03166001600160a01b03168152602001908152602001600020548380546106cc90610d82565b80601f01602080910402602001604051908101604052809291908181526020018280546106f890610d82565b80156107455780601f1061071a57610100808354040283529160200191610745565b820191906000526020600020905b81548152906001019060200180831161072857829003601f168201915b5050505050935082805461075890610d82565b80601f016020809104026020016040519081016040528092919081815260200182805461078490610d82565b80156107d15780601f106107a6576101008083540402835291602001916107d1565b820191906000526020600020905b8154815290600101906020018083116107b457829003601f168201915b50505050509250935093509350935090919293565b6002546107f79060ff16600a610ec9565b6108019082610ed5565b6003819055336000908152600460205260408120919091556108238482610f3b565b5060016108308382610f3b565b50505050565b60008361084381856102d3565b156108b657604051638f4ffcb160e01b81526001600160a01b03821690638f4ffcb19061087a903390889030908990600401610ffb565b600060405180830381600087803b15801561089457600080fd5b505af11580156108a8573d6000803e3d6000fd5b5050505060019150506103f5565b509392505050565b6001600160a01b0382166109145760405162461bcd60e51b815260206004820152601f60248201527f43616e6e6f74207472616e7366657220746f207a65726f20616464726573730060448201526064016103a4565b6001600160a01b0383166000908152600460205260409020548111156109735760405162461bcd60e51b8152602060048201526014602482015273496e73756666696369656e742062616c616e636560601b60448201526064016103a4565b6001600160a01b0382166000908152600460205260409020546109968282611038565b10156109d55760405162461bcd60e51b815260206004820152600e60248201526d27bb32b9333637bb9032b93937b960911b60448201526064016103a4565b6001600160a01b038316600090815260046020526040812080548392906109fd908490610dd2565b90915550506001600160a01b03821660009081526004602052604081208054839290610a2a908490611038565b92505081905550816001600160a01b0316836001600160a01b03167fddf252ad1be2c89b69c2b068fc378daa952ba7f163c4a11628f55a4df523b3ef83604051610a7691815260200190565b60405180910390a3505050565b6000815180845260005b81811015610aa957602081850181015186830182015201610a8d565b506000602082860101526020601f19601f83011685010191505092915050565b6020815260006103f56020830184610a83565b80356001600160a01b0381168114610af357600080fd5b919050565b60008060408385031215610b0b57600080fd5b610b1483610adc565b946020939093013593505050565b600080600060608486031215610b3757600080fd5b610b4084610adc565b9250610b4e60208501610adc565b9150604084013590509250925092565b600060208284031215610b7057600080fd5b5035919050565b600060208284031215610b8957600080fd5b6103f582610adc565b608081526000610ba56080830187610a83565b8281036020840152610bb78187610a83565b604084019590955250506060015292915050565b634e487b7160e01b600052604160045260246000fd5b600067ffffffffffffffff80841115610bfc57610bfc610bcb565b604051601f8501601f19908116603f01168101908282118183101715610c2457610c24610bcb565b81604052809350858152868686011115610c3d57600080fd5b858560208301376000602087830101525050509392505050565b600082601f830112610c6857600080fd5b6103f583833560208501610be1565b600080600060608486031215610c8c57600080fd5b833567ffffffffffffffff80821115610ca457600080fd5b610cb087838801610c57565b94506020860135915080821115610cc657600080fd5b50610cd386828701610c57565b925050604084013590509250925092565b600080600060608486031215610cf957600080fd5b610d0284610adc565b925060208401359150604084013567ffffffffffffffff811115610d2557600080fd5b8401601f81018613610d3657600080fd5b610d4586823560208401610be1565b9150509250925092565b60008060408385031215610d6257600080fd5b610d6b83610adc565b9150610d7960208401610adc565b90509250929050565b600181811c90821680610d9657607f821691505b602082108103610db657634e487b7160e01b600052602260045260246000fd5b50919050565b634e487b7160e01b600052601160045260246000fd5b8181038181111561033a5761033a610dbc565b600181815b80851115610e20578160001904821115610e0657610e06610dbc565b80851615610e1357918102915b93841c9390800290610dea565b509250929050565b600082610e375750600161033a565b81610e445750600061033a565b8160018114610e5a5760028114610e6457610e80565b600191505061033a565b60ff841115610e7557610e75610dbc565b50506001821b61033a565b5060208310610133831016604e8410600b8410161715610ea3575081810a61033a565b610ead8383610de5565b8060001904821115610ec157610ec1610dbc565b029392505050565b60006103f58383610e28565b808202811582820484141761033a5761033a610dbc565b601f821115610f3657600081815260208120601f850160051c81016020861015610f135750805b601f850160051c820191505b81811015610f3257828155600101610f1f565b5050505b505050565b815167ffffffffffffffff811115610f5557610f55610bcb565b610f6981610f638454610d82565b84610eec565b602080601f831160018114610f9e5760008415610f865750858301515b600019600386901b1c1916600185901b178555610f32565b600085815260208120601f198616915b82811015610fcd57888601518255948401946001909101908401610fae565b5085821015610feb5787850151600019600388901b60f8161c191681555b5050505050600190811b01905550565b6001600160a01b038581168252602082018590528316604082015260806060820181905260009061102e90830184610a83565b9695505050505050565b8082018082111561033a5761033a610dbc56fea264697066735822122088bfa23b46bec94fc7c365a69a3077ca8b016d1f5f055838c7934ec11328727364736f6c63430008120033a26469706673582212204f522f7ac3f34dc9ee87f07c4e41ec2f00280aef6e0858d2f3a10eb31b34b96264736f6c63430008120033","linkReferences":{}},"methodIdentifiers":{"createToken(string,string,uint256)":"5b060530","getAllTokens()":"2a5c792a","tokens(uint256)":"4f64b2be"},"id":21}